:100000000C94E5040C94F7040C94F7040C94501130
:100010000C9423360C94F7040C94F7040C94F70416
:100020000C94F7040C94F7040C94F7040C94842CAF
:100030000C94F7040C94F7040C94F7040C94F70454
:100040000C94672E0C94F7040C947C280C943E2896
:100050000C94F7040C94F7040C94F7040C94F70434
:100060000C94F7040C94F704060706070607060726
:100070009B06181018101810181018108F0618105A
:100080001810181018101810181059075907590788
:100090009107910718101810181018101810181040
:1000A0008F0618108F061810181018101810181036
:1000B0001810181006071810BF07181018109C0702
:1000C000181018101810181018109C071810181075
:1000D00018109B06B407B407B407B407B407B407F5
:1000E0001810B90718101810181018101810181038
:1000F00018101810181018101810181018101810C0
:1001000018101810181018100C07181018101810C4
:100110001810181018101810181018106D076D0707
:100120008F0686078607EE07EE07EE07FE07FE0737
:10013000FE07361036101208120836103610361028
:10014000361036103610361036103610361036107F
:10015000361036103610361036103610361036106F
:100160003610EE0743083A103A104D085A0867084F
:1001700074083A1078083A1086083A1090089A08DD
:10018000CB083A103A103A10A408B108BE08CC0EB9
:10019000E10E000FE10E060F1D0F0C0F160F320FB0
:1001A0003C0F480F6A0F8B0F990FA80FB60F5822FC
:1001B0005D22622267226C22712276227B228022BB
:1001C00085228A229E229E229E229E229E229E225C
:1001D0009E229E2294228F229922F122F622FB2235
:1001E000002305230A230F2314232C274027452708
:1001F0004E273B274E274E274E2731274E274E2787
:100200004E274E274E274E274E2736274E274E275E
:100210004E274E274E274E274E274E274E274E2736
:100220004E274E274E274E274E274A274E274E272A
:100230004E274E274E274E274E274E274E274E2716
:100240004E274E274E274E274E274E274E274E2706
:100250004E274E274E274E274E274E274E274E27F6
:100260004E274E274E274E274E2731277B2A812A9D
:10027000842A892A8E2A9C2AAA2A352B352B352BAB
:10028000B82ABB2AC42ACD2A352B352B352B352B42
:10029000352B352BDB2AEB2AFB2A092B0C2B152BB4
:1002A0001E2B252B084AD73B3BCE016E84BCBFFDDD
:1002B000C12F3D6C74319ABD56833DDA3D00C77F36
:1002C00011BED9E4BB4C3E916BAAAABE00000080CF
:1002D0003F05A84CCDB2D44EB93836A9020C50B95E
:1002E000918688083CA6AAAA2ABE000000803F008A
:1002F0003E0D0A002C4C696D3A002C52583A002CE5
:100300004275663A002C002C57506F733A002C004F
:100310002C4D506F733A003C446F6F72003C436841
:1003200065636B003C416C61726D003C486F6D65AC
:10033000003C486F6C64003C52756E003C49646C34
:1003400065005D0D0A005B302E396A2E3230313681
:10035000303732363A000D0A003D00244E005D0D64
:100360000A00205300204600205400204D38002071
:100370004D3900204D3500204D3400204D330020F4
:100380004D3200204D3100204D30002047393400DF
:1003900020473933002047393100204739300020C9
:1003A00047323000204732310020473139002047A2
:1003B00031380020473137002047004733382E00BE
:1003C000473830004733004732004731004730009C
:1003D0005B005D0D0A005B544C4F3A005D0D0A0056
:1003E0002C005B4739323A005D0D0A002C003A00C0
:1003F0003330003238005B47005D0D0A003A002CB4
:10040000005B5052423A00290D0A00206D617820AD
:1004100074726176656C2C206D6D0020616363657C
:100420006C2C206D6D2F7365635E3200206D6178DA
:1004300020726174652C206D6D2F6D696E002C200B
:10044000737465702F6D6D007A0079007800202834
:10045000003D0024002028686F6D696E672070756C
:100460006C6C2D6F66662C206D6D290D0A0020289E
:10047000686F6D696E67206465626F756E63652C69
:10048000206D736563290D0A2432373D00202868EA
:100490006F6D696E67207365656B2C206D6D2F6DB8
:1004A000696E290D0A2432363D002028686F6D6977
:1004B0006E6720666565642C206D6D2F6D696E29F1
:1004C0000D0A2432353D00290D0A2432343D002026
:1004D00028686F6D696E672064697220696E766541
:1004E0007274206D61736B3A002028686F6D696EBD
:1004F00067206379636C652C20626F6F6C290D0A2D
:100500002432333D00202868617264206C696D6973
:1005100074732C20626F6F6C290D0A2432323D00F7
:100520002028736F6674206C696D6974732C206267
:100530006F6F6C290D0A2432313D002028726570DE
:100540006F727420696E636865732C20626F6F6CC4
:10055000290D0A2432303D00202861726320746F17
:100560006C6572616E63652C206D6D290D0A2431F6
:10057000333D0020286A756E6374696F6E20646570
:1005800076696174696F6E2C206D6D290D0A2431B6
:10059000323D00290D0A2431313D00202873746159
:1005A000747573207265706F7274206D61736B3A2D
:1005B00000202870726F62652070696E20696E7607
:1005C0006572742C20626F6F6C290D0A2431303DE6
:1005D0000020286C696D69742070696E7320696EE3
:1005E000766572742C20626F6F6C290D0A24363D7B
:1005F0000020287374657020656E61626C652069E7
:100600006E766572742C20626F6F6C290D0A24352A
:100610003D00290D0A24343D0020286469722070B1
:100620006F727420696E76657274206D61736B3AB7
:1006300000290D0A24333D00202873746570207052
:100640006F727420696E76657274206D61736B3A97
:10065000002028737465702069646C652064656C83
:1006600061792C206D736563290D0A24323D0020C9
:1006700028737465702070756C73652C20757365B4
:1006800063290D0A24313D0024303D002424202814
:1006900076696577204772626C2073657474696E41
:1006A0006773290D0A242320287669657720232083
:1006B000706172616D6574657273290D0A2447203B
:1006C0002876696577207061727365722073746132
:1006D0007465290D0A24492028766965772062759A
:1006E000696C6420696E666F290D0A244E20287695
:1006F000696577207374617274757020626C6F63C2
:100700006B73290D0A24783D76616C75652028731A
:10071000617665204772626C2073657474696E67D8
:10072000290D0A244E783D6C696E65202873617628
:1007300065207374617274757020626C6F636B29CD
:100740000D0A24432028636865636B2067636F6428
:1007500065206D6F6465290D0A245820286B696C2B
:100760006C20616C61726D206C6F636B290D0A24C3
:1007700048202872756E20686F6D696E67206379F6
:10078000636C65290D0A7E20286379636C6520738C
:1007900074617274290D0A212028666565642068D9
:1007A0006F6C64290D0A3F202863757272656E7440
:1007B00020737461747573290D0A6374726C2D78DB
:1007C00020287265736574204772626C290D0A00D7
:1007D0000D0A4772626C20302E396A205B2724276D
:1007E00020666F722068656C705D0D0A005D0D0AF1
:1007F00000526573746F72696E6720646566617517
:100800006C74730050676D20456E640043686563C7
:100810006B20446F6F720044697361626C656400A1
:10082000456E61626C65640043617574696F6E3A10
:1008300020556E6C6F636B656400272448277C2706
:1008400024582720746F20756E6C6F636B0052659F
:1008500073657420746F20636F6E74696E756500C4
:100860005B000D0A00486F6D696E67206661696CF8
:100870000050726F6265206661696C0041626F7240
:100880007420647572696E67206379636C650053C8
:100890006F6674206C696D69740048617264206CC5
:1008A000696D697400414C41524D3A20000D0A00B7
:1008B000496E76616C69642067636F6465204944A2
:1008C0003A00556E646566696E65642066656564A8
:1008D000207261746500556E737570706F72746507
:1008E0006420636F6D6D616E64004D6F64616C2098
:1008F00067726F75702076696F6C6174696F6E00D6
:100900004C696E65206F766572666C6F7700486F14
:100910006D696E67206E6F7420656E61626C6564D0
:1009200000416C61726D206C6F636B004E6F7420C0
:1009300069646C6500454550524F4D207265616495
:10094000206661696C2E205573696E672064656648
:1009500061756C74730056616C7565203C203320A2
:10096000757365630053657474696E672064697399
:1009700061626C65640056616C7565203C203000D6
:10098000496E76616C69642073746174656D656E1F
:100990007400426164206E756D62657220666F72CC
:1009A0006D617400457870656374656420636F6D74
:1009B0006D616E64206C6574746572006572726F2F
:1009C000723A20006F6B0D0A000011241FBECFEF9A
:1009D000D8E0DEBFCDBF26E0A0E0B1E001C01D92AF
:1009E000AC3CB207E1F70E94ED130C943E3D0C9431
:1009F0000000439808953B9A0E94F90408958230BC
:100A000011F4439A08950E94F9040895CF939091A8
:100A1000A105923031F0C82F0E942A228C2F0E940B
:100A2000FF04CF910895F999FECF92BD81BD81E079
:100A30008FBB80B50895F894F999FECF92BD81BD22
:100A400081E08FBB80B58627962F982359F06F3FA2
:100A500029F060BD84E08FBBF99A0AC084E18FBBA6
:100A6000F99A06C0882321F060BD84E28FBBF99A11
:100A7000789408958F929F92AF92BF92CF92DF9217
:100A8000EF92FF920F931F93CF93DF937C018B0123
:100A90006A014115510509F15A01C0E0D1E001C0D8
:100AA000C401C11108C06C2FCC0F770BC72FCC1F0E
:100AB000CC27CC1F01C0CD2FF80161918F01C60F4B
:100AC0004C01FFEF8F1A9F0A0E941B0521E0A21A1A
:100AD000B10831F7EC0CFD1C01C0C0E06C2FC70160
:100AE0000E941B05DF91CF911F910F91FF90EF9016
:100AF000DF90CF90BF90AF909F908F9008958F928E
:100B00009F92AF92BF92CF92DF92EF92FF920F939C
:100B10001F93CF93DF937B016A014115510511F1BA
:100B2000C82FD92F5A01CB01912C882483948C0192
:100B30000F5F1F4F0E941305911008C0292D990CBB
:100B4000330B232F221F2227221F01C0282D982E6E
:100B5000920E899381E0A81AB108C80141F7EC0C04
:100B6000FD1C01C0912CC7010E94130521E030E05B
:100B7000891511F020E030E0C901DF91CF911F917C
:100B80000F91FF90EF90DF90CF90BF90AF909F902C
:100B90008F900895EF92FF920F931F93CF93DF935F
:100BA0007C01062F172FEC012C96F70161917191B2
:100BB000819191917F01F801219131914191519160
:100BC0008F010E949F39811105C0EC16FD0669F75F
:100BD00081E001C080E0DF91CF911F910F91FF90E4
:100BE000EF9008958FE3E8E2F5E0DF011D928A952A
:100BF000E9F76BE475E080E00E940A2A811103C0E6
:100C000087E00E943F22089564EA75E08FE395E053
:100C10000E948E3808952F923F924F925F926F926A
:100C20007F928F929F92AF92BF92CF92DF92EF927C
:100C3000FF920F931F93CF93DF93CDB7DEB7AB97A0
:100C40000FB6F894DEBF0FBECDBF7C0189E3E7E6A7
:100C5000F5E0DF011D928A95E9F78AE0E8E2F5E028
:100C6000A8E6B5E001900D928A95E1F7198E612C06
:100C7000712CC12CD12C1BA21E8E1AA2AA24A394C3
:100C8000B12C0F2EF1E68F2EF3E09F2EF02DA5C292
:100C90009FEB910F9A3110F00C9414108F5F898F95
:100CA000AE01465E5F4FBE01675E7F4FC7010E9487
:100CB0006518882311F40C9416102A8C3B8C4C8CEC
:100CC0005D8CC201B1010E94E43C0E94223A062FD1
:100CD00070E080E090E00E94533A9B01AC01C201B9
:100CE000B1010E94A93820E030E048EC52E40E94B3
:100CF000013C0E946E3C0E94223A173421F01D34C0
:100D000009F45CC1B2C1802F90E08F35910510F0DD
:100D10000C941810FC01EC5CFF4F0C94383D6115ED
:100D2000710511F00C949910BAA1BB2311F40C9425
:100D30007C100C941A100C3109F128F4043071F075
:100D40000A30A1F01EC1053309F444C00C3509F482
:100D500049C00E3149F115C1E1E0EAA3E1E0A7E69F
:100D6000B5E0EC9380E012C1F1E0FAA382E0A7E6DF
:100D7000B5E08C9380E00AC1B1E0BAA361157105BA
:100D800029F06A30710541F00C941C1023E0E7E66D
:100D9000F5E0208380E001C184E0A7E6B5E08C9314
:100DA00080E0FBC0B1E0BAA36115710529F06A309B
:100DB000710541F00C941E1025E0E7E6F5E0208374
:100DC00080E0EBC0E6E0A7E6B5E0EC9380E0E5C0AC
:100DD000F1E0FAA3E7E0A7E6B5E0EC9380E0D6C047
:100DE000F1E0FAA36115710529F06A30710541F04F
:100DF0000C942010E8E0A7E6B5E0EC9380E0CDC0CD
:100E0000E9E0A7E6B5E0EC9380E0C7C0FAA1F111F4
:100E10000C94221022E02AA30230B9F028F4002317
:100E200059F0013069F0AFC00632C9F00035E1F188
:100E3000033009F0A8C00EC01092680581E0A6C07A
:100E400031E03093680581E0A1C082E080936805BD
:100E500081E09CC083E08093680581E097C06E319B
:100E6000710599F028F46431710551F00C94241047
:100E70006832710579F06233710589F00C942410A1
:100E800084E08093680581E088C095E090936805D0
:100E900081E083C0A6E0A093680581E07EC0B7E052
:100EA000B093680581E079C0E8E0E093680581E0EF
:100EB0006DC0023149F0033161F0013109F065C0C4
:100EC00010926C0582E062C0F1E0F0936C0582E064
:100ED0005DC082E080936C0559C06115710559F4BD
:100EE0000A3521F410926B0583E057C021E020936E
:100EF0006B0583E052C06A30710511F00C94261026
:100F00000A3511F40C94281084E047C00D3529F4FB
:100F100031E03093690585E039C01092690585E0BC
:100F200035C0043129F481E080936A0586E02EC043
:100F300010926A0586E02AC09AA191110C942A1099
:100F4000013331F410926D0588E0A3E0AAA325C017
:100F50006A30710511F00C942C10B1E0B0936D055E
:100F600088E0E3E0EAA319C0065300936E0589E028
:100F70000DC0672B11F00C942E108AE00EC087E094
:100F800005C080E003C081E001C082E0672B29F04A
:100F90000C94301080E0F1E0FAA3950102C0220F1A
:100FA000331F8A95E2F7C901960128233923232BA1
:100FB00011F00C943210C82AD92A0FC1672B11F0F6
:100FC0000C943410802F90E08F31910510F00C9428
:100FD0003610FC01ED56FF4F0C94383D023049F0BD
:100FE0000E3139F001112CC031E030936F058BE0E8
:100FF0002CC082E080936F058BE027C0043049F05D
:10100000053061F00330F1F481E0809371058CE0EC
:101010001CC082E0809371058CE017C010927105AE
:101020008CE013C0083019F0093031F00DC082E0B7
:10103000809370058DE009C0109270058DE005C0A9
:101040008BE003C08CE001C08DE0D50102C0AA0F87
:10105000BB1F8A95E2F796012A233B23232B11F02D
:101060000C943810CA2ADB2AB8C0812F90E0FC010A
:10107000E654F109E531F10510F00C943A10EE5404
:10108000FF4F0C94383D20927205309273054092C8
:1010900074055092750580E07FC0209276053092ED
:1010A00077054092780550927905BBA1B160BBA34A
:1010B00081E072C020927A0530927B0540927C05D7
:1010C00050927D05EBA1E260EBA382E065C0209227
:1010D0007E0530927F054092800550928105FBA1EC
:1010E000F460FBA383E058C00093820584E054C001
:1010F000C201B1010E941B3A60938305709384057D
:10110000809385059093860585E046C020928705EB
:10111000309288054092890550928A0586E03CC04D
:1011200020928B0530928C0540928D0550928E0551
:1011300087E032C020928F05309290054092910551
:101140005092920588E028C020929405309295052F
:1011500040929605509297052E8D21602E8F8AE041
:101160001BC0209298053092990540929A055092A2
:101170009B053E8D32603E8F8BE00EC020929C0519
:1011800030929D0540929E0550929F058E8D846001
:101190008E8F8CE001C089E08501082E02C0000F0F
:1011A000111F0A94E2F7930120233123232B09F026
:1011B00063C7D40102C0B595A7958A95E2F7A0FF51
:1011C0000AC020E030E0A901C201B1010E949F39AC
:1011D00088230CF453C7602A712A898DF701E80F20
:1011E000F11D1081111154CDBE8DBB2329F0EAA150
:1011F000E11102C0F2E0FAA365FE0EC08091830502
:1012000090918405A0918505B09186058038964916
:10121000A849B1050CF034C780916905813031F4DB
:101220003AA1323091F560FE2DC72FC0809129057B
:1012300081112BC060FE19C080916A05813029F5AB
:1012400007E615E023E333E34BEC51E4D8011B96AA
:101250006D917D918D919C911E970E94013CF801AA
:10126000638774878587968710C080913605909133
:101270003705A0913805B091390580937205909398
:101280007305A0937405B093750570FC10C0809130
:10129000320590913305A0913405B09135058093C6
:1012A0008F0590939005A0939105B093920580913E
:1012B0006705813021F466FEE7C6E89466F8809100
:1012C0006C05882349F0813009F44DC71EA2F2E075
:1012D000FDA321E02CA34CC780916A05813099F5CC
:1012E00032E03EA38DA31CA20F2EF7E6AF2EF5E051
:1012F000BF2EF02D00E010E09E8DE92EF12CC701ED
:10130000002E02C0959587950A94E2F780FF12C0DF
:1013100023E333E34BEC51E4D5019D966D917D9130
:101320008D919C91D0970E94013CF50165A776A70D
:1013300087A790AB0F5F1F4FF4E0AF0EB11C0330D7
:101340001105E9F605C022E02EA331E03DA31CA261
:101350008AA1833041F480916D05813021F49E8D06
:10136000943009F093C68CE0EBE4F5E0DE011196D1
:1013700001900D928A95E1F7D1FE11C080916E0522
:10138000873008F085C690912E05891741F0BE017F
:101390006F5F7F4F0E940A2A882309F47BC6509012
:1013A0006705A2E05A1629F0B8E05B1609F4A8C058
:1013B0001CC1EE8DEE2309F46FC6C3018075992719
:1013C000892B09F46BC6609187057091880580911F
:1013D000890590918A050E94E43C0E94223A673078
:1013E00008F05EC680918205843129F0823009F0D0
:1013F00059C667FC59C6FFEA6F22662319F061508F
:101400006FA303C020916E052FA3BE01635F7F4FC2
:101410008FA10E940A2A882309F448C630908205C9
:101420008091630590916405A0916505B091660572
:1014300088A799A7AAA7BBA78E01035F1F4F0F2EEE
:10144000F7E6EF2EF5E0FF2EF02D0F2EF8E2CF2E6F
:10145000F5E0DF2EF02DA12CB12C9E8D892E912C44
:10146000C4010A2C02C0959587950A94E2F780FF83
:1014700036C0A4E13A1229C0F60127A530A941A936
:1014800052A96789708D818D928D0E94A938D701EC
:101490009D962D913D914D915C91D0970E94A938D8
:1014A000F8016083718382839383F2E0AF1217C0E7
:1014B00028A539A54AA55BA50E94A938D8016D9336
:1014C0007D938D939C9313970AC0F70185A596A5EC
:1014D000A7A5B0A9F80180839183A283B383FFEF0E
:1014E000AF1ABF0A0C5F1F4F24E0E20EF11C34E07C
:1014F000C30ED11C83E0A816B10409F0B1CF56C6C3
:101500009E8D992309F4D4C50F2EF8E2CF2EF5E075
:10151000DF2EF02DDE0111965D010F2EF7E6EF2E86
:10152000F5E0FF2EF02D00E010E0892E912CC40193
:10153000002E02C0959587950A94E2F780FF3AC085
:10154000F5012081318142815381D60157966D91F9
:101550007D918D919C915A970E94A938F70125A5FC
:1015600036A547A550A90E94A938D7019D966D932D
:101570007D938D939C93D097023031F5000F111F0E
:10158000000F111F09591A4F20916305309164050E
:1015900040916505509166050E94A938F80165A73C
:1015A00076A787A790AB10916805183009F4F2C0B0
:1015B0001FA2F7C0F60187A590A9A1A9B2A9F701BA
:1015C00085A796A7A7A7B0AB0F5F1F4FF4E0CF0E7C
:1015D000D11C24E0A20EB11C34E0E30EF11C033058
:1015E000110509F0A4CF1FA2E1C58AA1833009F437
:1015F0009BC09E8D992309F4CDC540906B050F2E9D
:10160000F8E2CF2EF5E0DF2EF02D0F2EF7E6EF2ECD
:10161000F5E0FF2EF02DDE0111965D0100E010E0F7
:10162000292E312CC101002E02C0959587950A9470
:10163000E2F780FD0BC0F6018789908DA18DB28DF8
:10164000F70185A796A7A7A7B0AB5EC0F7E05F1626
:1016500009F45AC0411043C0D6019F962D913D9187
:101660004D915C91D297F501608171818281938166
:101670000E94AA38D7019D962D913D914D915C9184
:10168000D0970E94AA389B01AC01F70165A776A705
:1016900087A790AB0230C1F5000F111F000F111F7B
:1016A00009591A4F60916305709164058091650531
:1016B000909166050E94AA38D8019D966D937D93FE
:1016C0008D939C93D097B5E05B1609F446C0E7E094
:1016D0005E1609F450C0F3E05F1252C034C0D60168
:1016E00057962D913D914D915C915A97F70165A5C3
:1016F00076A587A590A90E94AA38D7019D966D93DB
:101700007D938D939C93D0970F5F1F4FB4E0CB0ECA
:10171000D11CE4E0EE0EF11CF4E0AF0EB11C03307E
:10172000110509F07FCF2AC525E05216B1F037E048
:10173000531609F183E0581223C09E8D911103C006
:101740001AA201C01AA2BE01635F7F4F86E00E9409
:101750000A2A882309F4AEC413C0AE8DA11101C0BA
:101760001AA2BE01635F7F4F87E00E940A2A882386
:1017700009F4A2C405C080916805823008F09EC4B7
:1017800010916805183061F4BE8DBB2309F42FC297
:101790001FA201C01FA2EAA1E13009F091C430C22A
:1017A0001FA2FAA1F23009F023C2111105C02E8D3B
:1017B000222309F401C524C220E030E0A901609190
:1017C00072057091730580917405909175050E9462
:1017D0009F39882309F476C4143028F4123060F459
:1017E000113029F005C2183008F4F4C101C23E8D51
:1017F000332309F4E1C404C28E8D882309F464C440
:101800009CA1A92EB12CADA18A2E912C81E090E053
:101810008C010CA002C0000F111F0A94E2F702C055
:10182000880F991FAA95E2F7082B192BBE8D8B2FD5
:1018300090E080239123892B09F448C4C501880FC7
:10184000991F880F991FFC01E959FA4FDC01A85D27
:10185000BA4F57962D913D914D915C915A9765A540
:1018600076A587A590A90E94A9386E8F7F8F88A33F
:1018700099A3C401880F991F880F991FFC01E9598A
:10188000FA4FDC01A85DBA4F57962D913D914D91CD
:101890005C915A9765A576A587A590A90E94A9385D
:1018A00068A779A78AA79BA767FEE6C0E89467F8B0
:1018B00064E975E08FE395E00E94CA05811108C4D0
:1018C00080916A058130A1F407E615E023E333E354
:1018D0004BEC51E4F80164A175A186A197A10E9487
:1018E000013CD80194966D937D938D939C9397972B
:1018F000C0908B05D0908C05E0908D05F0908E0502
:1019000020E030E040E850E4C701B6010E94013C0D
:10191000A70196010E94013C6B017C012E8D3F8D39
:1019200048A159A1CA01B9010E94013C9B01AC0127
:10193000C701B6010E94A9386B017C0128A539A511
:101940004AA55BA5CA01B9010E94013C9B01AC01FB
:10195000C701B6010E94A9386B017C0120E030E08C
:10196000A9010E949F3988230CF4B4C3C701B601B2
:101970000E94A03C6B017C0128A539A54AA55BA566
:101980006E8D7F8D88A199A10E9436199B01AC01B3
:10199000C701B60190580E94A9396B017C01809162
:1019A0006805833021F4F7FAF094F7F8F09420906A
:1019B0008B0530908C0540908D0550908E0520E071
:1019C00030E0A901C201B1010E949F3988237CF453
:1019D000F7FAF094F7F8F094D201C101B05880936F
:1019E0008B0590938C05A0938D05B0938E05850192
:1019F000000F111F000F111F05591A4F28A539A5F7
:101A00004AA55BA5C701B6010E94013C9B01AC0140
:101A10006E8D7F8D88A199A10E94A93820E030E0C9
:101A200040E05FE30E94013CF8016387748785878B
:101A300096878401000F111F000F111F05591A4FBF
:101A40002E8D3F8D48A159A1C701B6010E94013CCE
:101A500028A539A54AA55BA50E94AA3820E030E058
:101A600040E05FE30E94013CD8011B966D937D939B
:101A70008D939C931E97C4C0BBA1CB2ED12C0C215F
:101A80001D21012B09F428C3E1EF6E2280916A0524
:101A9000813041F507E615E0E12CF12CC6010E2C52
:101AA00002C0959587950A94E2F780FF12C023E360
:101AB00033E34BEC51E4D8011F966D917D918D91EC
:101AC0009C9152970E94013CF8016787708B818B33
:101AD000928BFFEFEF1AFF0A0C5F1F4F23E0E21615
:101AE000F104E1F6C401880F991F880F991FDC01EA
:101AF000A559BA4F7D011B962D913D914D915C9159
:101B00001E9768A579A58AA59BA50E94A9381B01E7
:101B10002C018501000F111F000F111F05591A4FCD
:101B2000F80123853485458556856E8D7F8D88A186
:101B300099A10E94A938A20191010E9436194B0176
:101B40005C01D7011B962D913D914D915C911E97A3
:101B5000F80163857485858596850E9436196B0129
:101B60007C0160938B0570938C0580938D05909319
:101B70008E059B01AC01C501B4010E94A9384B013F
:101B80005C01E894B7F82AE037ED43EA5BE3C5016E
:101B9000B4010E94C13B18169CF520E030E040E003
:101BA0005FE3C501B4010E94C13B18160CF496C254
:101BB0002FE632E143E85AE3C701B6010E94013C37
:101BC0009B01AC01C501B4010E94C13B18160CF485
:101BD00087C216C0FE8DFF2309F484C264E975E054
:101BE0008FE395E00E94CA0581117EC209C01FA241
:101BF0002AA1211105C03EED63223CEF732204C0EF
:101C00008EED682280EE7822672809F06FC2E8E244
:101C1000F5E0A7E6B5E05C964D915D916D917C9104
:101C20005F97438B548B658B768B12968C911297B2
:101C300081831B964D915D916D917C911E97468796
:101C40005787608B718B9896CD90DD90ED90FC90CE
:101C50009B97A701960162857385848595850E946F
:101C60009F398823C1F080913105882321F0B70185
:101C7000A6010E94232C80918F0590919005A09140
:101C80009105B09192058093320590933305A0930E
:101C90003405B0933505E8E2F5E0A7E6B5E09C969B
:101CA0008C919C97828B1A968C919185981759F0FC
:101CB0008F0142855385648575850E94232C809110
:101CC0007105F80181878091700590913005981712
:101CD00031F00E9406058091700580933005809157
:101CE0006705813051F46091870570918805809176
:101CF000890590918A050E943E17E8E2F5E0A7E683
:101D0000B5E015968C911597848313968C918283F8
:101D1000FAA1F330F9F480916D0580932D0581309F
:101D200089F480919C0590919D05A0919E05B091AC
:101D30009F058093630590936405A0936505B09318
:101D4000660508C01092630510926405109265053F
:101D50001092660580916E0590912E05981759F0A6
:101D600080932E058CE0FE013196ABE4B5E0019046
:101D70000D928A95E1F7E7E6F5E0848180932B05E3
:101D8000808190E0FC013297E830F10508F055C001
:101D9000E953FF4F0C94383DBE01635F7F4F8FA125
:101DA0000E94FC2880912E052FA1821346C08CE052
:101DB000FE013D96ABE4B5E001900D928A95E1F706
:101DC0003CC03AA1332349F020E040E050E060E815
:101DD0007FEB84E995E00E94261420E040E050E08B
:101DE00060E87FEBCE010D960E9426148CE0FE0188
:101DF0003D96AFE3B5E001900D928A95E1F71DC0E5
:101E00006FE375E086E00E94FC2817C06FE375E081
:101E100087E00E94FC2811C08CE0E4E9F5E0A7E52A
:101E2000B5E001900D928A95E1F707C08CE0E7E5F7
:101E3000F5E0DF011D928A95E9F7809168058093AE
:101E40002805883009F4A9C0BAA1B23009F0A5C0AC
:101E500090E08830910508F097C0FC01E153FF4FF6
:101E60000C94383D20E040E050E060E87FEB84E9EE
:101E700095E00E94261488C0E8E2F5E04685578583
:101E800060897189218184E995E00E9426147CC0D3
:101E9000E8E2F5E0C684D784E088F18800918B05FC
:101EA00010918C0520918D0530918E0581E08F93E6
:101EB0008EA18F939DA19F938CA0A18046E755E0B2
:101EC00064E975E08FE395E00E945C140F900F9039
:101ED0000F905AC0E8E2F5E0C684D784E088F18824
:101EE00000918B0510918C0520918D0530918E0508
:101EF0001F92AEA1AF93BDA1BF938CA0A18046E776
:101F000055E064E975E08FE395E00E945C140F9062
:101F10000F900F9039C0E8E2F5E04685578560895B
:101F20007189E12C00E0218184E995E00E94B317DA
:101F30002BC0E8E2F5E04685578560897189EE247B
:101F4000E39400E0218184E995E00E94B3171CC06E
:101F5000E8E2F5E04685578560897189E12C01E06A
:101F6000218184E995E00E94B3170EC0E8E2F5E014
:101F70004685578560897189EE24E39401E02181CB
:101F800084E995E00E94B3178CE0E4E9F5E0AFE363
:101F9000B5E001900D928A95E1F780916F058093ED
:101FA0002F05882309F40EC10E942A2280912F0553
:101FB000813079F48091A105823091F19FB7F89436
:101FC000809125058860809325059FBF0E9446204B
:101FD00027C0E8E2F5E081E0808314821382118259
:101FE0001682118610868091A1058230B1F0BE0163
:101FF0006F5F7F4F80E00E940A2A882309F478C02F
:102000008CE0FE013196ABE4B5E001900D928A952B
:10201000E1F70E94BB2B0E94F90487E00E94E022B6
:1020200010922F0580E0CEC081E0CCC082E0CAC013
:1020300084E1C8C088E1C6C084E1C4C084E1C2C0F4
:1020400084E1C0C088E1BEC084E1BCC084E1BAC004
:1020500084E1B8C088E1B6C084E1B4C084E1B2C014
:1020600087E1B0C085E1AEC087E1ACC084E1AAC021
:1020700085E1A8C084E1A6C089E1A4C084E0A2C033
:102080008BE1A0C086E19EC08CE19CC085E29AC035
:102090008DE198C087E096C08AE194C08CE192C03F
:1020A0008DE190C084E18EC084E18CC087E08AC05D
:1020B0008AE188C087E086C087E084C08EE182C064
:1020C0008FE180C086E17EC08AE17CC080E27AC078
:1020D00081E278C082E276C083E274C081E272C09D
:1020E00081E270C08AE16EC081E26CC084E26AC0A5
:1020F00087E068C087E166C00C3111F40C94BC061F
:1021000050F4043011F40C94AC060A3011F00C9425
:10211000CA070C94B406053311F40C94E8060C3588
:1021200011F40C94F0060E3111F00C94CA070C94C3
:10213000D2060C3111F40C94BE0648F4043011F4AC
:102140000C94AE060A3011F40C94B606D3CF0533C6
:1021500011F40C94EA060C3511F40C94F2060E31CD
:1021600049F60C94D406E1E0EEA31DA2F2E0FCA334
:1021700080916A05813009F0EBC8B6C825E0521697
:1021800009F4EBCA37E0531609F4F5CA83E0581294
:10219000F7CAD9CA95E0591609F4DFCAA7E05A165A
:1021A00009F4E9CAB3E05B12EBCACCCA1091680526
:1021B000183009F0F6CAEFCAEEED6E22ECEF7E227F
:1021C0001AA222CDAB960FB6F894DEBF0FBECDBFDC
:1021D000DF91CF911F910F91FF90EF90DF90CF9003
:1021E000BF90AF909F908F907F906F905F904F9037
:1021F0003F902F900895EBE6F0E08081897E808308
:10220000E8E6F0E080818E7F8083089584B1897E46
:1022100084B985B1866185B98091BC0683FF0BC006
:10222000EBE6F0E0808186618083E8E6F0E0808183
:102230008160808308950E94FB100895EF92FF92C1
:102240000F931F93CF93DF9313B116718091BC0648
:1022500086FD1BC086E1182718C0C0E0D0E000E072
:10226000EE24E394F12C8C2F0E94B12B812341F0BA
:10227000C7010C2E02C0880F991F0A94E2F7082BA1
:102280002196C330D10579F703C01111E6CF00E0E4
:10229000802FDF91CF911F910F91FF90EF900895C4
:1022A0001F920F920FB60F9211242F933F934F93CB
:1022B0005F936F937F938F939F93AF93BF93EF93AE
:1022C000FF938091A105813071F0809127058111E4
:1022D0000AC00E9436189FB7F89480912705836042
:1022E000809327059FBFFF91EF91BF91AF919F9181
:1022F0008F917F916F915F914F913F912F910F90AF
:102300000FBE0F901F9018952F923F924F925F92A1
:102310006F927F928F929F92AF92BF92CF92DF92F5
:10232000EF92FF920F931F93CF93DF93CDB7DEB75A
:102330006A970FB6F894DEBF0FBECDBF9091A0058F
:102340009111C9C1888F2FE736E03F8B2E8B790121
:10235000CE0101965C0100E010E0412C512C3201CD
:10236000988DC92ED12C802F0E949D2BD5018D9345
:102370005D01D98AC88AC601002E02C0959587954D
:102380000A94E2F780FF19C020E030E040EC5FEBF8
:10239000F70164A175A186A197A10E94013C862E38
:1023A000972E282E392EA30192010E949F3988234F
:1023B00024F0482C592C622C732C0F5F1F4FF4E033
:1023C000EF0EF11C0330110571F6288839888091D1
:1023D000C2069091C306A091C406B091C5068A8B2F
:1023E0009B8BAC8BBD8B94E0988B01E064EA75E02D
:1023F000CE0104960E948E388091BD06E82EF12C05
:10240000AE014C5F5F4F0F2EF0EACF2EF5E0DF2ECE
:10241000F02DF601DE01119680E090E060E010E022
:1024200053014201B7FAB094B7F8B094BA8FA98FAC
:102430009101082E02C0359527950A94E2F720FFF6
:1024400031C06F5F14821582168217829701082EA1
:1024500002C0359527950A94E2F720FF10C00023AB
:1024600039F0DA018D929D92AD92BC92139716C00D
:10247000DA014D925D926D927C9213970FC000230A
:1024800039F0DA014D925D926D927C92139706C0FD
:10249000DA018D929D92AD92BC921397A98DBA8D5F
:1024A0002C91122B0196298D3A8D2F5F3F4F3A8F39
:1024B000298F4C5F5F4F34968330910509F0B8CF78
:1024C000462E512C612C712CC301B2010E94513A4D
:1024D0000E94A03C9B01AC016A897B898C899D8903
:1024E0000E94013C4B015C011093BD050E94961EA9
:1024F00020E0B501A401CE0104960E94271B0E9492
:102500002A2F0E943C2C0023F1F00E941E11FE0194
:10251000319620E030E0682F70E08191982F912370
:1025200059F0AB01022E02C0559547950A94E2F787
:1025300040FF02C0809518232F5F3F4F23303105A5
:1025400061F71093BD050E942A2F809125058473A1
:10255000C9F080912505807339F40111B7C00E943C
:102560001E11388D832329F00E9436180E944620C0
:10257000B2C09FB7F894809125058B7F8093250585
:102580009FBF04C0812F8C7109F0BDCF0E94BD2E6A
:102590000E94CF1AA6ECB6E08D919C910E942B1957
:1025A000B1E00B27D1F020E030E040EA50E4E8EC65
:1025B000F6E060817181828193810E94013C2B0150
:1025C0003C01AEEBB6E08D919D910D90BC91A02D9C
:1025D0008A8B9B8BAC8BBD8B11C0E8ECF6E0408006
:1025E000518062807380A2ECB6E08D919D910D9038
:1025F000BC91A02D8A8B9B8BAC8BBD8BB889B150C5
:10260000B88BB111F3CEE090BD06F12C8090C806D6
:102610009090C906A090CA06B090CB06240135015F
:1026200077FA709477F8709400E010E0C101002E02
:1026300002C0959587950A94E2F780FF36C0C701DE
:10264000002E02C0959587950A94E2F780FF15C089
:10265000EE89FF8924A135A146A157A1C501B40186
:102660000E94AA38AE89BF892D913D914D915C9110
:102670000E94013C0E94CE3B0CC0EE89FF89208164
:10268000318142815381C301B2010E94013C0E9409
:10269000CE3BD60114966C93149715967C931597A0
:1026A00016968C93169717969C930F5F1F4FB4E066
:1026B000CB0ED11CEE89FF893496FF8BEE8B033055
:1026C000110509F0B3CF0E94961E05C08091250523
:1026D00082FF4FCF49CF6A960FB6F894DEBF0FBE88
:1026E000CDBFDF91CF911F910F91FF90EF90DF90C1
:1026F000CF90BF90AF909F908F907F906F905F90A2
:102700004F903F902F9008959F92AF92BF92CF929B
:10271000DF92EF92FF920F931F93CF93DF939090EE
:10272000A305EC010F2EF3EAAF2EF6E0BF2EF02D3D
:102730008C01045F1F4FC990D990E990F99020E077
:1027400030E0A901C701B6010E94C13B181664F030
:10275000F50121913191419151915F01C701B6017C
:102760000E949F39882324F481E08093A30502C04E
:10277000992019F18091A105883091F49FB7F894C0
:10278000809125058860809325059FBFC0EAD5E02C
:102790000E9446208881811114C089818111F8CF5F
:1027A0000E9436189FB7F894809127058560809322
:1027B00027059FBF0E94462004C0C017D10709F01B
:1027C000BACFDF91CF911F910F91FF90EF90DF90E3
:1027D000CF90BF90AF909F9008950E940C280E94C8
:1027E000902B0E94E92E0E941236E0EAF5E08EE17D
:1027F000DF011D928A95E9F781E0808378948091CA
:10280000BC0684FF03C081E08093A105C0EAD5E047
:102810000E94E5280E94F2050E94C12B0E94FB0441
:102820000E9406110E9412200E94CF1A0E94BD2E03
:102830000E94961E0E94040618821092250510928E
:1028400027051A821B820E947D21E2CFBF92CF9280
:10285000DF92EF92FF920F931F93CF93DF938C0140
:102860006A017B01B22E8091BC0685FF03C0C801BE
:102870000E9484138091A1058230A1F0C0EAD5E0C6
:102880000E944620888181110DC00E941F1B882351
:1028900019F00E947421F4CF2B2DB701A601C801B5
:1028A0000E94271BDF91CF911F910F91FF90EF9016
:1028B000DF90CF90BF9008952F923F924F925F92FA
:1028C0006F927F928F929F92AF92BF92CF92DF9240
:1028D000EF92FF920F931F93CF93DF93CDB7DEB7A5
:1028E000E4970FB6F894DEBF0FBECDBF9E878D87ED
:1028F0007CAB6BAB3A010D831E832F833887CF8669
:10290000D88AE98AFA8A0A2D912C880C991C880C9D
:10291000991C880D991D9C8B8B8BCA01880D991D64
:1029200098AB8FA7DC012D903D904D905C90EB898A
:10293000FC892081318142815381C201B1010E9411
:10294000AA386D8B7E8B8F8B988F2A96AFAC2A9787
:10295000B12CAA0CBB1CAA0CBB1C8D859E858A0DB4
:102960009B1D9A8F898FD301AA0DBB1DBAABA9AB52
:10297000CD90DD90ED90FC90FC0120813181428171
:102980005381C701B6010E94AA386B8F7C8F8D8F4F
:102990009E8FD201C101B05889839A83AB83BC83D7
:1029A000D701C601B05889879A87AB87BC87EBA946
:1029B000FCA9E80DF91D2D893E894F89588D60814C
:1029C0007181828193810E94A9386B017C01EBA9FE
:1029D000FCA9EA0DFB1D2B8D3C8D4D8D5E8D60811C
:1029E0007181828193810E94A9384B015C01A7010A
:1029F000960169817A818B819C810E94013C2B0127
:102A00003C01A501940169857A858B859C850E948E
:102A1000013C9B01AC01C301B2010E94AA382B0109
:102A20003C01A501940169817A818B819C810E947E
:102A3000013C4B015C01A701960169857A858B8574
:102A40009C850E94013C9B01AC01C501B4010E9420
:102A5000A938A30192010E9429394B015C012C96EF
:102A60008FAD2C978823A9F02DEB37E346E055EB8B
:102A7000C501B4010E94C13B8823FCF02BED3FE06F
:102A800049EC50E4C501B4010E94A9384B015C0136
:102A900014C02DEB37E346E055E3C501B4010E94B5
:102AA0009F39181654F02BED3FE049EC50E4C50176
:102AB000B4010E94AA384B015C01C090B806D090C6
:102AC000B906E090BA06F090BB062D813E814F8199
:102AD0005885CA01B9010E94AA382B013C01A701FF
:102AE0009601C301B2010E94A938A70196010E9474
:102AF000013C0E94A03C6B017C0120E030E040E002
:102B00005FE3C501B4010E94013C2D813E814F81EC
:102B100058850E94013C9F77A70196010E94A93920
:102B20000E948E3A0E94223A6B017C013B016115A2
:102B3000710509F481C1002381F080E090E00E94DA
:102B4000513A9B01AC016F85788989899A890E94E5
:102B5000013C6F87788B898B9A8BB60180E090E07F
:102B60000E94513A6B017C019B01AC01C501B4018B
:102B70000E94A9396BA77CA78DA79EA72B968FAD26
:102B80002B9790E0880F991F880F991F4D845E84C2
:102B9000480E591EEBA9FCA9E80FF91FD2012D918F
:102BA0003D914D915C9160817181828193810E9400
:102BB000A938A70196010E94A9396F8F78A389A32C
:102BC0009AA32BA53CA54DA55EA5CA01B9010E94FB
:102BD000013C9B01AC0160E070E080E090E40E9469
:102BE000A9386B017C012BEA3AEA4AE25EE36BA565
:102BF0007CA58DA59EA50E94013C4B015C0120E0B7
:102C000030E040E850E4C701B6010E94AA389B01B9
:102C1000AC01C501B4010E94013C6BA37CA38DA350
:102C20009EA320E030E040E05FE3C701B6010E94D0
:102C3000013C6FA378A789A79AA7B2E06B1671042D
:102C400008F4FAC010E022242394312CC984DA84D9
:102C5000EB84FC841C3008F044C0A70196016FA1EE
:102C600078A589A59AA50E94013C4B015C012981A8
:102C70003A814B815C816BA17CA18DA19EA10E94B8
:102C8000013CA50194010E94AA38862E972EA82EF9
:102C9000B92E29813A814B815C816FA178A589A5E4
:102CA0009AA50E94013C69837A838B839C83A70148
:102CB00096016BA17CA18DA19EA10E94013C9B016C
:102CC000AC0169817A818B819C810E94A9386983DA
:102CD0007A838B839C831F5FC82CD92CEA2CFB2C16
:102CE00066C0B10180E090E00E94513A2BA53CA55E
:102CF0004DA55EA50E94013C6B017C010E94A43998
:102D00006D837E838F839887C701B6010E94923CB2
:102D100069877A878B879C87EFA5F8A9C080D180C7
:102D2000E280F380F7FAF094F7F8F094A9A9BAA931
:102D30008D909D90AD90BC90A70196016D817E8194
:102D40008F8198850E94013C69837A838B839C8361
:102D5000A501940169857A858B859C850E94013C3B
:102D60009B01AC0169817A818B819C810E94AA3888
:102D700069837A838B839C83A701960169857A8511
:102D80008B859C850E94013C6B017C01A50194010F
:102D90006D817E818F8198850E94013C9B01AC01F1
:102DA000C701B6010E94A9386B017C0110E02D8992
:102DB0003E894F89588D69817A818B819C810E94DF
:102DC000AA38EB89FC8960837183828393832B8D7E
:102DD0003C8D4D8D5E8DC701B6010E94AA38A98D2C
:102DE000BA8D6D937D938D939C9313972F8D38A1FE
:102DF00049A15AA1F20160817181828193810E946F
:102E0000AA38D2016D937D938D939C931397202FB5
:102E10004F85588969897A898D859E850E942614F7
:102E2000E0EAF5E08081811110C0FFEF2F1A3F0A20
:102E30006214730409F00ECF202F4F8558896989D9
:102E40007A898BA99CA90E942614E4960FB6F8945F
:102E5000DEBF0FBECDBFDF91CF911F910F91FF90CD
:102E6000EF90DF90CF90BF90AF909F908F907F902A
:102E70006F905F904F903F902F9008958F929F9208
:102E8000AF92BF92CF92DF92EF92FF92CF93DF93F8
:102E90002091A105223009F448C04B015C0120E0DB
:102EA00030E040EA51E40E94013C0E948E3A0E94C8
:102EB000223A6B017C01EB010E942A2220E030E0E3
:102EC0004AE754E4C501B4010E94013C4B015C0196
:102ED00082E38C9DB0018D9D700D112480E090E007
:102EE0000E94513A9B01AC01C501B4010E94A9386E
:102EF0000E948E3A0E94223ACB010E942B19CD2BC0
:102F0000A1F0C0EAD5E00E944620888181110DC061
:102F10002FEF80E792E0215080409040E1F700C021
:102F2000000021E0C21AD10871F7DF91CF91FF9024
:102F3000EF90DF90CF90BF90AF909F908F900895CB
:102F40000E94FB1084E00E94841183E00E9484119F
:102F50000E9446208091A005811104C00E940406B1
:102F60000E94061108958F929F92AF92BF92CF92C6
:102F7000DF92EF920F93CF93DF933091A105323020
:102F800009F469C0C22F4A015B016C010E942A2228
:102F90001092BC05802F0E9415200E9427208823B4
:102FA00051F09FB7F89480912705806180932705A1
:102FB0009FBF0E9446208091A00581114CC02C2FFC
:102FC000B501A401C6010E94261481E08093260564
:102FD0009FB7F894809125058260809325059FBF57
:102FE000C0EAD5E00E9446209881911134C09981B1
:102FF0009111F8CF809126058130A9F4EE2051F08F
:103000008CE0E4EAF5E0A0EBB5E001900D928A9542
:10301000E1F70CC09FB7F8948091270580618093F9
:1030200027059FBF03C081E08093BC051092260551
:103030000E9446208091A00581110DC00E94BD2EE6
:103040000E94CF1A0E94961E64EA75E0C6010E9493
:103050008E380E944325DF91CF910F91EF90DF9042
:10306000CF90BF90AF909F908F900895809125054D
:1030700084FD2AC09FB7F8948091250580618093D4
:1030800025059FBF0E94BB2B0E94F9048091A105DA
:10309000982F9C7021F49091A2059130A9F484306E
:1030A00049F49FB7F89480912705806280932705A3
:1030B0009FBF08C09FB7F8948091270588608093D0
:1030C00027059FBF0E945B2C08954F925F926F92DD
:1030D0007F928F929F92AF92BF92CF92DF92EF92A8
:1030E000FF920F931F93CF93DF93DC01FB01C0810D
:1030F000D0E0FC01EC0FFD1F90819D3229F4EF011F
:103100002296918101E00BC09B3229F02196CA0FD3
:10311000DB1F00E004C0EF012296918100E080E017
:1031200020E010E0412C512C320131E0FE0190539F
:103130009A3010F52F5F2930D8F4811111505301C6
:103140004201880C991CAA1CBB1C880C991CAA1C47
:10315000BB1C840C951CA61CB71C880C991CAA1CB3
:10316000BB1C24013501490E511C611C711C09C096
:10317000811107C01F5F05C09E3F31F4811104C05B
:10318000832F90812196D2CF222309F452C06A0165
:103190007B015D01C301B2010E94513A2B013C0148
:1031A00020E030E0A9010E949F39882351F11F3FA0
:1031B0006CF42AE037ED43E25CE3C301B2010E9404
:1031C000013C2B013C011E5F1F3F9CF311235CF46B
:1031D0002DEC3CEC4CEC5DE3C301B2010E94013CE0
:1031E0002B013C010EC0111664F420E030E040E2F7
:1031F00051E4C301B2010E94013C2B013C0111507A
:10320000A1F7002351F077FA709477F87094F601E3
:10321000408251826282738205C0F60140825182EF
:1032200062827382CA19DB09C150F701C08381E051
:1032300001C080E0DF91CF911F910F91FF90EF903F
:10324000DF90CF90BF90AF909F908F907F906F90C6
:103250005F904F900895009741F0EFE9FFE03197BC
:10326000F1F700C000000197C1F708954F925F92F7
:103270006F927F928F929F92AF92BF92CF92DF9286
:10328000EF92FF924B015C0169017A01A501940163
:10329000C501B4010E94013C4B015C01A7019601EC
:1032A000C701B6010E94013C9B01AC01C501B401FC
:1032B0000E94AA380E94A03CFF90EF90DF90CF9030
:1032C000BF90AF909F908F907F906F905F904F9046
:1032D00008952F923F924F925F926F927F928F92BA
:1032E0009F92AF92BF92CF92DF92EF92FF920F9395
:1032F0001F93CF93DF93C0911E01C11101C0C2E1A2
:10330000C150D0911C01DC1709F436C10C2F10E01C
:1033100029E2C29FC0011124FC01E05EFE4F6F0153
:10332000E588F6889788808C61A172A183A194A119
:103330009B01AC010E94AA38F60125A136A147A144
:1033400050A50E94013CA62EB72EC82ED92E262F9E
:10335000372F482F592F6E2D7F2D892D982D0E94A4
:103360009F39882324F0EA2CFB2C9C2C8D2C89E29D
:10337000809FF001819FF00D1124E05EFE4F8E2DA5
:103380009F2DA92DB82D818B928BA38BB48BC1114E
:1033900001C0C2E1C150DC1307C080911F01D813E6
:1033A0007CC00E940B2F79C029E2209FC001219F81
:1033B000900D11249C01205E3E4F6901D9E2EC2E54
:1033C000F12CDE9D8001DF9D100D1124005E1E4F4B
:1033D000C11101C0C2E1C15080911F018C1302C014
:1033E0000E940B2FDE9DF001DF9DF00D1124E05EA9
:1033F000FE4F458856886788708CA30192016189C9
:103400007289838994890E949F39882309F440C076
:10341000DE9DC001DF9D900D1124FC01E05EFE4F9A
:103420005F0161A172A183A194A19B01AC010E94E3
:10343000AA38F50125A136A147A150A50E94013C5B
:10344000F60121893289438954890E94AA384B01A7
:103450005C019B01AC01C301B2010E94C13B181683
:1034600064F4DE9DF001DF9DF00D1124E05EFE4F5F
:10347000818A928AA38AB48A0BC0DE9DF001DF9D07
:10348000F00D1124E05EFE4F418A528A638A748AED
:10349000680180911C018C1392CF20901C01F9E2ED
:1034A0002F9EC00111249C01205E3E4F7901C1E096
:1034B000C20DC23109F4C0E030901E01D9E258C0FB
:1034C000CC2ED12CDC9D8001DD9D100D1124005EE1
:1034D0001E4FF7014188528863887488F8018188FB
:1034E0009288A388B488A5019401C301B2010E9407
:1034F0009F39882324F5F70161A172A183A194A1CA
:103500009B01AC010E94AA38F70125A136A147A171
:1035100050A50E94013CA30192010E94AA382B01F0
:103520003C019B01AC01C501B4010E94C13B1816CE
:1035300034F4F801418A528A638A748A2C2EDC9D05
:10354000F001DD9DF00D1124E05EFE4F25893689E6
:103550004789508D61897289838994890E949F3936
:10356000811101C02C2ECF5FC23109F4C0E0780177
:10357000C311A6CF20921C01DF91CF911F910F9113
:10358000FF90EF90DF90CF90BF90AF909F908F9083
:103590007F906F905F904F903F902F9008958CE1B7
:1035A000E0E0F1E0DF011D928A95E9F710921F013A
:1035B00010921E0181E080931D0110921C0108955C
:1035C00080911F0190911E01981769F091E0980F6A
:1035D000923109F490E020911C01821302C0909373
:1035E0001C0190931F01089580911F0190911E016D
:1035F000981739F029E2829FC0011124805E9E4F06
:10360000089580E090E00895E0911F01EF5FE231BE
:1036100009F4E0E080911E018E1769F089E2E89FCD
:10362000F0011124E05EFE4F6189728983899489DB
:103630000E94A03C089560E070E0CB01089581E015
:1036400020911F0190911D01291380E008952F9270
:103650003F924F925F926F927F928F929F92AF9222
:10366000BF92CF92DF92EF92FF920F931F93CF936F
:10367000DF93CDB7DEB7E8970FB6F894DEBF0FBE85
:10368000CDBF4BA75CA76DA77EA7022F20911E017F
:1036900039E2239FA0011124FA01E05EFE4F158656
:1036A00016861786108A15A216A217A210A61082D7
:1036B0000F2EF9E9CF2EF6E7DF2EF6E9EF2EFEE723
:1036C000FF2EF02DC1A2D2A2E3A2F4A29A8F898F7D
:1036D0008FE796E09AAB89ABDE011196BC8FAB8F7A
:1036E000E0E0F1E0FCABEBABCA018F5D9E4F9E8F3B
:1036F0008D8F4E019DE0890E911C9AA289A25F01D7
:10370000AFE7B6E0BCA3ABA310E0E22FF0E0F8AB6C
:10371000EFA79A01205E3E4F3AA729A7235F3F4FAC
:1037200038A72FA329A43AA435E2230E311CA98D72
:10373000BA8D6D917D918D919D91BA8FA98FEBA1DD
:10374000FCA14190519061907190FCA3EBA3A30167
:1037500092010E94013C0E94CE3BAB8DBC8D6D93CB
:103760007D938D939D93BC8FAB8FF501C190D190CC
:10377000E190F1905F016C197D098E099F099B0111
:10378000AC013AF422273327A901261B370B480B3B
:10379000590BAD8DBE8D2D933D934D935D93BE8F93
:1037A000AD8FEFA1F8A5C080D180E280F380C21672
:1037B000D306E406F50610F469017A01AFA1B8A5B5
:1037C000CD92DD92ED92FC9213970E94533AA301A1
:1037D00092010E94A9392B013C01E9A1FAA1619350
:1037E000719381939193FAA3E9A320E030E0A901BA
:1037F0000E949F39882344F4812F0E94A72BA9A5FA
:10380000BAA59C91892B8C93A3019201C301B201AB
:103810000E94013CF10120813181428153810E944B
:10382000AA38D1016D937D938D939C9313971F5F5D
:10383000133009F07CCF0E94A03C6B017C0189E22F
:103840002FA538A9829FF001839FF00D1124E05E1F
:10385000FE4FC5A2D6A2E7A2F0A685859685A785CC
:10386000B089892B8A2B8B2B09F447C220E030E0EA
:10387000A9016BA57CA58DA59EA50E949F398823D3
:103880000CF1002361F0A70196016BA57CA58DA525
:103890009EA50E94013C6BA77CA78DA79EA720E058
:1038A00030E040E85FE36BA57CA58DA59EA50E9456
:1038B0009F3988237CF41BA61CA630E83DA74FE364
:1038C0004EA708C059E95BA786E78CA796E99DA794
:1038D000AEE7AEA7A701960160E070E080E89FE345
:1038E0000E94A9396DAB7EAB8FAB98AF2E01B9E1C9
:1038F0004B0E511C1BA21CA21DA21EA229E2EFA569
:10390000F8A92E9FC0012F9F900D11249C012F5BC1
:103910003E4F190169A87AA80BA91CA9D401CD9022
:10392000DD90ED90FC9020E030E0A901C701B601E8
:103930000E949F39882309F48DC0A70196016DA9C3
:103940007EA98FA998AD0E94013C6B017C01F40116
:1039500060837183828393839B01AC0160E070E09C
:1039600080E89FE30E94A9399B01AC015F772D8F0E
:103970003E8F4F8F58A37AA269A2D3011C962D9136
:103980003D914D915C911F976D8D7E8D8F8D98A18E
:103990000E94013C698F7B8FB82EA92E2BA53CA5D8
:1039A0004DA55EA50E94C13B181634F0B98DBBA78A
:1039B000EB8DECA7BDA6AEA6D101BC91B98FF101EC
:1039C000F181FB8FD1011296AC9012971396BC90A7
:1039D000E9A1FAA1208D318D428D538D6D8D7E8DA3
:1039E0008F8D98A10E94013C6D8F79A38FA399A719
:1039F000262F372F482F592F698D7B8D8A2D9B2D90
:103A00000E949F39882334F0FD8DF98F29A12B8FD7
:103A1000AFA0B9A4898D9B8DAA2DBB2DF101808308
:103A20009183A283B383D8011C962D913D914D9132
:103A30005C911F97C701B6010E94013C9B01AC013C
:103A40006BA17CA18DA19EA10E94A9386BA37CA330
:103A50008DA39EA3B4E08B0E911C0C5F1F4FE4E07E
:103A60006E0E711C8414950409F058CF90911E01BC
:103A700080911F01981313C089E22FA538A9829F56
:103A8000F001839FF00D1124E05EFE4F118A128A2F
:103A9000138A148A118E128E138E148E90C02FEEFC
:103AA0003FEF4FE75FE36BA17CA18DA19EA10E9438
:103AB000C13B18167CF489E24FA558A9849FF001F8
:103AC000859FF00D1124E05EFE4F118E128E138E35
:103AD000148E75C02FEE3FEF4FE75FEB6BA17CA11B
:103AE0008DA19EA10E94C13B181644F08FEE9FEF5E
:103AF000AFE7BFEB8BA39CA3ADA3BEA32BA13CA1BF
:103B00004DA15EA160E070E080E89FE30E94A938CB
:103B100020E030E040E05FE30E94013C0E94A03CD6
:103B20006B017C0189E2AFA5B8A98A9FF0018B9F48
:103B3000F00D1124E05EFE4F2091B4063091B506E1
:103B40004091B6065091B70661A172A183A194A1DC
:103B50000E94013CA70196010E94013C4B015C01BF
:103B6000A701960160E070E080E89FE30E94A93819
:103B70009B01AC01C501B4010E94A939E62EF72EC4
:103B8000082F192F20E030E0A9010E949F398823D7
:103B900024F4E12CF12C00E010E089E22FA538A9F3
:103BA000829FF001839FF00D1124E05EFE4F4E2DA9
:103BB0005F2D602F712F418F528F638F748F2BA5D4
:103BC0003CA54DA55EA56BA57CA58DA59EA50E94D7
:103BD000013CF62E072F182FE92E89E24FA558A990
:103BE000849FF001859FF00D1124E05EFE4F8F2D24
:103BF000902FA12FBE2D858F968FA78FB0A3D18C2C
:103C0000C28CB38CA48C9090180180901901709094
:103C10001A0160901B01292D382D472D562D6F2D2F
:103C2000702F812F9E2D0E949F3988232CF0B92D53
:103C3000A82DF72DE62D04C0BF2DA02FF12FEE2DBE
:103C40002D2D3C2D4B2D5A2D6B2F7A2F8F2F9E2FE4
:103C50000E94C13B1816ACF0292D382D472D562D4A
:103C60006F2D702F812F9E2D0E949F3988232CF05D
:103C7000D92CC82CB72CA62C04C0DF2CC02EB12EFA
:103C8000AE2C89E2AFA5B8A98A9FF0018B9FF00DF9
:103C90001124E05EFE4F8D2D9C2DAB2DBA2D858B12
:103CA000968BA78BB08F8CE0FE013D96ACE0B1E027
:103CB00001900D928A95E1F78F2D902FA12FBE2DA7
:103CC0008093180190931901A0931A01B0931B01DE
:103CD0008CE0FE013196A0E0B1E001900D928A9552
:103CE000E1F780911D0180931E018F5F823109F4FD
:103CF00080E080931D010E946919E8960FB6F89440
:103D0000DEBF0FBECDBFDF91CF911F910F91FF900E
:103D1000EF90DF90CF90BF90AF909F908F907F906B
:103D20006F905F904F903F902F900895A4EAB5E078
:103D3000E0E0F1E08CE091E04D915D916D917D913D
:103D40004193519361937193E817F907A9F7089587
:103D500080911E0190911F01891710F0891B089511
:103D60008E5E891B08950E940B2F80911F01809306
:103D70001C010E9469190895CF93DF93EC0188819B
:103D8000882331F021960E94222889918111FBCF4E
:103D9000DF91CF910895CF93DF93EC012196FC0141
:103DA0008491882339F00E942228FE018491219673
:103DB0008111F9CFDF91CF910895CF92DF92EF92E9
:103DC000FF921F93CF93DF93CDB7DEB7562F142FFB
:103DD000CDB6DEB62DB73EB7241B31090FB6F89429
:103DE0003EBF0FBE2DBF6DB77EB76F5F7F4F7B01AC
:103DF0004423D1F0FB019FEF940F292F30E02F5F78
:103E00003F4F260F371F652F0E940A3D91932E17B3
:103E10003F07C9F7F701E10FF11D31978081805D00
:103E20000E9422281150B1F70FB6F894DEBE0FBEE3
:103E3000CDBEDF91CF911F91FF90EF90DF90CF909B
:103E4000089548E062E00E94DD1E08958A3020F067
:103E5000843620F043E003C041E001C042E06AE064
:103E60000E94DD1E08958F929F92AF92BF92CF92D3
:103E7000DF92EF92FF920F931F93CF93DF93CDB713
:103E8000DEB72A970FB6F894DEBF0FBECDBF6B0129
:103E90007C01042F20E030E0A9010E949F39882393
:103EA0003CF48DE20E942228F7FAF094F7F8F0949F
:103EB000023088F0102F20E030E048EC52E4C701D7
:103EC000B6010E94013C6B017C011250123098F740
:103ED000802F817001C0802F882351F020E030E0D6
:103EE00040E251E4C701B6010E94013C6B017C0134
:103EF00020E030E040E05FE3C701B6010E94AA384D
:103F00000E941B3A2EE2FE01E00FF11D2183611594
:103F100071058105910541F110E00F2EFAE08F2E19
:103F2000912CA12CB12CF02D011303C021E0210F05
:103F300001C0212F11E0120FEE24E394F12CEC0EBE
:103F4000FD1EE20EF11CA50194010E94163D605D6C
:103F5000F7016083622F732F842F952F61157105F0
:103F60008105910509F701C010E0101760F480E3A6
:103F7000E1E0F0E0EC0FFD1FE10FF11D80831F5F1A
:103F80000113F6CF02C0011308C012E0100F0F5F3B
:103F9000FE01E00FF11D80E38183112341F0FE015A
:103FA000E10FF11D80810E9422281150C1F72A964D
:103FB0000FB6F894DEBF0FBECDBFDF91CF911F913A
:103FC0000F91FF90EF90DF90CF90BF90AF909F90B8
:103FD0008F9008952091BC0620FF0AC02BE832E4A0
:103FE00041E25DE30E94013C44E00E94331F0895DA
:103FF00043E00E94331F08952091BC0620FF0AC0B1
:104000002BE832E441E25DE30E94013C41E00E9482
:10401000331F089540E00E94331F089543E00E943B
:10402000331F08953D98459A08951092BE059091CA
:10403000BC0699231CF090E29093BE05882331F0D2
:104040009091BE0580E289278093BE05089586B1D0
:1040500080729091BE058927089580912605813050
:10406000A1F40E942720882381F0109226058CE07D
:10407000E4EAF5E0A0EBB5E001900D928A95E1F756
:10408000809125058064809325050895AF92BF92A5
:10409000CF92DF92EF92FF920F931F93CF93DF9314
:1040A000C0EAD5E001E06894AA24A3F80F2EF8E254
:1040B000EF2EF5E0FF2EF02D6894CC24C5F868941F
:1040C000DD24D4F86894BB24B6F810912705112399
:1040D000B1F1098311FF04C0802F0E94AB2217C0E9
:1040E00012FF04C082E00E94AB2211C013FF04C083
:1040F00083E00E94AB220BC014FF04C084E00E9446
:10410000AB2205C015FF03C085E00E94AB2210FF63
:104110000FC0802F0E94E0229FB7F8948091250560
:104120008F7E809325059FBF8091250584FFFCCF5E
:104130008FB7F89490912705109227058FBF1091A3
:104140002505112309F4A5C014FF04C081E0809364
:10415000A005BFC010FF0AC00E9406279FB7F894B1
:10416000809125058E7F809325059FBF812F8876BE
:1041700009F4A9C08981882359F0982F9C7709F008
:104180009FC023C00E940B2F0A838981811105C023
:1041900082E08A8316FD06C099C016FF06C08830EB
:1041A00009F4B9828A8188608A8313FF03C08981F8
:1041B00085FFD98215FF09C086E00E94E0228A812E
:1041C00081FD146084608A83C9829FB7F8948091CE
:1041D00025058779809325059FBF11FF3DC0812F5D
:1041E000887691F58981882329F0807569F18A8123
:1041F00081FF2AC08A8182FF18C0F7018185882348
:1042000051F042855385648575850E94C62B80EAEE
:104210009FE00E942B19F7018085882331F00E94CE
:10422000FF0488EE93E00E942B190E94F41A892B58
:1042300049F08A8183FD06C0A9820E942A2F0E942C
:104240003C2C01C019821A829FB7F89480912505F1
:104250008D7F809325059FBF12FF1BC089818073CE
:1042600071F08B8181110BC08A8182FF04C00E9492
:10427000BB2B0E94F9048A8182608A8302C01A8261
:1042800019829FB7F894809125058B7F809325052F
:104290009FBF89818C7711F00E942A2F89818032FB
:1042A00041F48A8181FF05C00E945E36811101C000
:1042B000D9828A81811109CF0CC016FF76CF72CFC7
:1042C0008830D9F75FCF11FD8DCFC6CF13FD71CFE9
:1042D00071CFDF91CF911F910F91FF90EF90DF9001
:1042E000CF90BF90AF9008959FB7F8948091250527
:1042F0008260809325059FBF0895BF92CF92DF9281
:10430000EF92FF920F931F93CF93DF930E941E2390
:104310008091A105813081F482E00E94E022F12C9D
:10432000E12CC0EAD5E0D12C02E014E0CC24C39407
:104330006894BB24B1F878C00E945E36882341F0AF
:10434000809125058062809325050E94462002C049
:104350001092A10582E094E00E946036E0CF8A309E
:1043600011F08D3079F5EF2DF0E0EE5FFB4F10820C
:104370000E9446208881811151C0F80180818111FD
:1043800006C08D2D0E943F22FD2CED2C4DC08432A5
:1043900041F4C8010E9482360E943F22FD2CED2C80
:1043A00043C08981813031F489E00E943F22FD2C95
:1043B000ED2C3AC0C8010E940B060E943F22FD2C42
:1043C000ED2C32C0EE2039F0893271F5F1E0EF12B8
:1043D0002BC0ED2C29C0813238F18F3229F188327F
:1043E00001F18B3301F19EE49F1528F48BE00E94CC
:1043F0003F22FD2C19C09FE9980F9A3140F4EF2D10
:10440000F0E0EE5FFB4F80528083F3940DC0EF2D00
:10441000F0E0EE5FFB4F8083F39406C0FD2CED2CA3
:1044200003C0EC2C01C0EB2C0E9468288F3F09F0E0
:1044300096CF0E9474210E94462088818823A1F390
:10444000DF91CF911F910F91FF90EF90DF90CF9070
:10445000BF900895CF93DF930E947421C0EAD5E006
:104460000E9446208881811107C00E94F41A892B7E
:10447000B9F789818830A1F3DF91CF910895CF9367
:10448000C82F811105C084EC99E00E94CB1E61C049
:104490008CEB99E00E94CB1E8C2F90E0FC013197B1
:1044A000E631F10508F04AC0E952FF4F0C94383D5F
:1044B00084EA99E00E94CB1E48C082E999E00E94FC
:1044C000CB1E43C080E899E00E94CB1E3EC086E729
:1044D00099E00E94CB1E39C085E699E00E94CB1E70
:1044E00034C086E599E00E94CB1E2FC085E399E099
:1044F0000E94CB1E2AC08CE299E00E94CB1E25C0F0
:1045000081E299E00E94CB1E20C08EE099E00E94DB
:10451000CB1E1BC080E099E00E94CB1E16C08AEE25
:1045200098E00E94CB1E11C086ED98E00E94CB1E41
:104530000CC082EC98E00E94CB1E07C080EB98E094
:104540000E94CB1E8C2F0E94261F8DEA98E00E94AD
:10455000CB1ECF910895CF93C82F85EA98E00E9493
:10456000CB1EC330A9F02CF4C13041F0C23059F059
:104570001DC0C43091F0C530A9F018C08AE998E098
:104580000E94CB1E13C08FE898E00E94CB1E0EC085
:104590008CE798E00E94CB1E09C081E798E00E945A
:1045A000CB1E04C085E698E00E94CB1E82E698E010
:1045B0000E94CB1E84EF91E00E942B19CF910895A9
:1045C000CF93C82F80E698E00E94CB1E8C2F90E0FE
:1045D000FC013197E830F10558F5E351FF4F0C9499
:1045E000383D8EE498E00E94CB1E22C08AE398E01A
:1045F0000E94CB1E1DC088E298E00E94CB1E18C00E
:1046000080E298E00E94CB1E13C087E198E00E94F0
:10461000CB1E0EC08CE098E00E94CB1E09C084E047
:1046200098E00E94CB1E04C081EF97E00E94CB1E51
:104630008DEE97E00E94CB1ECF91089580ED97E01C
:104640000E94CB1E08958CE896E00E94CB1E089530
:104650001F93CF93DF9388E896E00E94CB1ECFE7AD
:10466000D6E088A90E94261F8FE696E00E94CB1E06
:104670008BA90E94261F81E596E00E94CB1E89A986
:104680000E94261F88E396E00E94CB1E89A90E9403
:10469000211F81E396E00E94CB1E8AA90E94261F5B
:1046A00089E196E00E94CB1E8AA90E94211F82E127
:1046B00096E00E94CB1E8DAD82FB882780F90E9478
:1046C000261F81EF95E00E94CB1E8DAD86FB8827CB
:1046D00080F90E94261F81ED95E00E94CB1E8DADD2
:1046E000881F8827881F0E94261F81EB95E00E9463
:1046F000CB1E8CA90E94261F8BE995E00E94CB1E41
:104700008CA90E94211F83E995E00E94CB1E6DA910
:104710007EA98FA998AD0E940E2083E795E00E94A4
:10472000CB1E69AD7AAD8BAD9CAD0E940E2088E5A5
:1047300095E00E94CB1E8DAD81700E94261F8BE3F9
:1047400095E00E94CB1E8DAD85FB882780F90E94E5
:10475000261F80E295E00E94CB1E8DAD83FB88274B
:1047600080F90E94261F85E095E00E94CB1E8DAD4A
:10477000829581700E94261F89EE94E00E94CB1ED4
:104780008EAD0E94261F8FEC94E00E94CB1E8EAD52
:104790000E94211F87EC94E00E94CB1E6091BE0610
:1047A0007091BF068091C0069091C1060E940E20B4
:1047B0008AEA94E00E94CB1E6091C2067091C30603
:1047C0008091C4069091C5060E940E208DE894E069
:1047D0000E94CB1E8091C6060E94261F8EE694E0A2
:1047E0000E94CB1E6091C8067091C9068091CA06CE
:1047F0009091CB060E940E2085E594E00E94CB1E8E
:1048000014E6D0E0F2C083E594E00E94CB1E8C2F2A
:10481000810F0E94261F81E594E00E94CB1ED130BB
:1048200011F130F0D230D1F1D33009F070C054C062
:10483000EC2FF0E0EE0FFF1FEE0FFF1FE158F94FD6
:1048400060817181828193810E940E208EE494E0C8
:104850000E94CB1EC13009F46AC008F462C0C230A5
:1048600009F46BC07FC0EC2FF0E0EE0FFF1FEE0FDE
:10487000FF1FE557F94F60817181828193810E940A
:104880000E208EE494E00E94CB1EC13009F44FC08C
:1048900008F447C0C23009F450C072C0EC2FF0E0F9
:1048A000EE0FFF1FEE0FFF1FE956F94F20E030E03B
:1048B00041E655E460817181828193810E94A9392A
:1048C0000E940E208EE494E00E94CB1EC13079F14C
:1048D00040F1C23091F162C0EC2FF0E0EE0FFF1F0B
:1048E000EE0FFF1FED55F94F80819181A281B381B9
:1048F000BC01CD0190580E940E208EE494E00E94ED
:10490000CB1EC130A1F068F0C230B9F055C08EE4C2
:1049100094E00E94CB1EC13051F018F0C23069F013
:1049200019C08CE494E00E94CB1EC0E066C08AE40B
:1049300094E00E94CB1EC1E060C088E494E00E9435
:10494000CB1EC2E0D130D9F068F0D23031F1D33093
:1049500091F190C0D130A1F028F0D230F9F0D330ED
:10496000B9F52AC08EE394E00E94CB1E87E094E064
:104970000E94CB1ECF5FC33008F455C031C0C2E0E7
:104980008CE294E00E94CB1E87E094E00E94CB1E54
:10499000CF5FC33008F454C023C0C2E08BE194E081
:1049A0000E94CB1E87E094E00E94CB1ECF5FC330F5
:1049B00008F453C015C0C2E08BE094E00E94CB1E07
:1049C00087E094E00E94CB1ECF5FC330F8F008C0B0
:1049D00087E094E00E94CB1ECF5FC33008F413CF72
:1049E000165FDF5F1C3809F44AC0C0E00CCF87E0D7
:1049F00094E00E94CB1ECF5F06CFD13009F208F4BD
:104A0000B1CFD23059F2D33091F7D6CF83E594E0CD
:104A10000E94CB1E812F8C0F0E94261F81E594E0FF
:104A20000E94CB1E59CF83E594E00E94CB1E812FBC
:104A30008C0F0E94261F81E594E00E94CB1EF8CEC9
:104A400083E594E00E94CB1E812F8C0F0E94261FCD
:104A500081E594E00E94CB1E06CF83E594E00E949E
:104A6000CB1E812F8C0F0E94261F81E594E00E94AF
:104A7000CB1E14CF87E094E00E94CB1EB1CFDF9114
:104A8000CF911F910895CF9381E094E00E94CB1EB7
:104A9000C0E06C2F80EB95E00E9472380E94EA1F04
:104AA000C23020F48FEF93E00E94CB1ECF5FC33063
:104AB00081F78DEF93E00E94CB1E8091BC050E9490
:104AC000261F89EF93E00E94CB1ECF910895EF92AD
:104AD000FF920F931F93CF93DF93CDB7DEB72C9741
:104AE0000FB6F894DEBF0FBECDBF00E0BE016F5F12
:104AF0007F4F802F0E940A2A811104C087E00E9404
:104B00003F226EC086EF93E00E94CB1E063019F064
:104B1000073031F00AC083EF93E00E94CB1E09C03A
:104B200080EF93E00E94CB1E04C086E3800F0E94BA
:104B3000261F8EEE93E00E94CB1ECE0101967C01D3
:104B400010E0F70161917191819191917F010E9433
:104B5000EA1F123028F48CEE93E00E94CB1E04C0B2
:104B600088EE93E00E94CB1E1F5F133051F70F5F5A
:104B7000083009F0BBCF82EE93E00E94CB1E0F2ECF
:104B8000F7E5EF2EF5E0FF2EF02D10E0F701619133
:104B90007191819191917F010E94EA1F123028F456
:104BA00080EE93E00E94CB1E04C08CED93E00E9447
:104BB000CB1E1F5F133051F786ED93E00E94CB1E92
:104BC000609163057091640580916505909166051B
:104BD0000E94EA1F82ED93E00E94CB1E0E944325B3
:104BE0002C960FB6F894DEBF0FBECDBFDF91CF91EC
:104BF0001F910F91FF90EF900895CF93DF9380ED79
:104C000093E00E94CB1E809128058230A9F028F401
:104C1000882341F0813059F01EC0833091F08830F4
:104C2000A9F019C08DEC93E00E94CB1E1DC08AEC48
:104C300093E00E94CB1E18C087EC93E00E94CB1E2D
:104C400013C084EC93E00E94CB1E0EC080EC93E076
:104C50000E94CB1E09C08BEB93E00E94CB1E80917B
:104C6000280582500E94261F88EB93E00E94CB1EED
:104C7000C8E2D5E08E818A5C0E94261F8C8181303B
:104C800049F018F0823059F00EC083EB93E00E9497
:104C9000CB1E09C08EEA93E00E94CB1E04C089EAB5
:104CA00093E00E94CB1E80912A05811105C084EA01
:104CB00093E00E94CB1E04C08FE993E00E94CB1EBC
:104CC00080912B05811105C08AE993E00E94CB1EDB
:104CD00004C085E993E00E94CB1E809129058130B4
:104CE00029F480E993E00E94CB1E04C08BE893E096
:104CF0000E94CB1E80912F05813049F018F0823040
:104D000059F00EC087E893E00E94CB1E09C083E8EB
:104D100093E00E94CB1E04C08FE793E00E94CB1E5D
:104D200080913105813021F068F0823031F00EC081
:104D30008BE793E00E94CB1E09C087E793E00E94B7
:104D4000CB1E04C083E793E00E94CB1E8091300508
:104D5000882319F0823031F009C08FE693E00E9479
:104D6000CB1E04C08BE693E00E94CB1E88E693E046
:104D70000E94CB1EC8E2D5E08A890E94261F85E6E4
:104D800093E00E94CB1E6E857F85888999890E9459
:104D9000FC1F82E693E00E94CB1E6A857B858C8592
:104DA0009D850E94FC1F8EE593E00E94CB1EDF9143
:104DB000CF9108951F93CF93DF93182FEB018BE5CD
:104DC00093E00E94CB1E812F0E94261F89E593E06D
:104DD0000E94CB1ECE010E94BC1E86E593E00E947D
:104DE000CB1EDF91CF911F910895CF93DF93EC01FC
:104DF00086E493E00E94CB1ECE010E94BC1E82E49A
:104E000093E00E94CB1EDF91CF910895AF92BF92A5
:104E1000CF92DF92FF920F931F93CF93DF93CDB783
:104E2000DEB768970FB6F894DEBF0FBECDBF8CE03B
:104E3000E4EAF5E0DE01119601900D928A95E1F722
:104E4000E091A1058E2F90E08134910538F5FC01A9
:104E5000EB50FF4F0C94383D8CE393E00E94CB1E47
:104E60001DC087E393E00E94CB1E18C081E393E04E
:104E70000E94CB1E13C08BE293E00E94CB1E0EC09B
:104E800084E293E00E94CB1E09C08DE193E00E9472
:104E9000CB1E04C087E193E00E94CB1E8091B30635
:104EA000837039F0BE016F5F7F4FCE010D960E9477
:104EB0008E388091B30680FF1AC080E193E00E9493
:104EC000CB1E6E012DE0C20ED11C10E0F6016191E7
:104ED0007191819191916F010E94EA1F123020F42B
:104EE0008EE093E00E94CB1E1F5F133079F7809114
:104EF000B30681FF4CC087E093E00E94CB1E8E0179
:104F0000035F1F4F0F2EFBE4CF2EF5E0DF2EF02DB9
:104F1000F12CF60161917191819191916F01208540
:104F20003185428553850E94AA389B01AC01F80166
:104F300060817181828193810E94A938F801608328
:104F4000718382839383F2E0FF1212C02091630584
:104F50003091640540916505509166050E94A9381D
:104F6000F80160837183828393830E94EA1F0FC0DC
:104F70000E94EA1FF1E0FF1520F085E093E00E9417
:104F8000CB1EF3940C5F1F4F23E0F212C2CF80912F
:104F9000B30682FF08C08FEF92E00E94CB1E0E94F2
:104FA000A81E0E94261F8091B30683FF08C08AEFC7
:104FB00092E00E94CB1E0E9401280E94261F809131
:104FC000B30684FF0AC084EF92E00E94CB1E0E94C9
:104FD0001E1143E062E00E94DD1E80EF92E00E941D
:104FE000CB1E68960FB6F894DEBF0FBECDBFDF9123
:104FF000CF911F910F91FF90DF90CF90BF90AF9016
:1050000008959091540480915504891710F0891BDC
:1050100008958058891B0895E0ECF0E0808182605B
:1050200080831092C50080E18093C400E1ECF0E041
:1050300080818061808380818860808380818068B6
:1050400080830895E091530421E02E0F203431F441
:1050500020E004C09091250594FD0FC0909152046A
:105060009217C1F3F0E0E154FA4F80832093530488
:10507000E1ECF0E080818062808308951F920F92BE
:105080000FB60F9211248F939F93EF93FF9380910C
:105090005204E82FF0E0E154FA4F90819093C6005B
:1050A0008F5F803409F480E0809352049091530420
:1050B000891305C0E1ECF0E080818F7D8083FF9152
:1050C000EF919F918F910F900FBE0F901F901895A9
:1050D0009091540480915504981761F0E92FF0E005
:1050E000E150FA4F80819F5F903809F490E09093EF
:1050F000540408958FEF08951F920F920FB60F92E8
:1051000011242F933F934F935F936F937F938F93CC
:105110009F93AF93BF93EF93FF938091C6008F331C
:1051200059F028F4883161F18132C1F02CC080340B
:10513000F1F08E3751F027C09FB7F8948091250584
:105140008160809325059FBF2FC09FB7F894809101
:1051500025058260809325059FBF26C09FB7F894E0
:10516000809125058860809325059FBF1DC09FB74E
:10517000F894809125058062809325059FBF14C017
:105180000E94361811C0E091550491E09E0F9038AE
:1051900009F490E020915404921731F0F0E0E150CE
:1051A000FA4F808390935504FF91EF91BF91AF9197
:1051B0009F918F917F916F915F914F913F912F912F
:1051C0000F900FBE0F901F901895809155048093FB
:1051D0005404089521E5829FC001112440E550E068
:1051E0009D5F0E943A05089540E550E0BC018EEABB
:1051F00093E00E943A0508952DE0829FC00111249A
:105200004CE050E09E5F0E943A05089569E080E01E
:1052100090E00E941B054DE450E06FE776E081E0EE
:1052200090E00E943A0508950F931F93CF93DF9368
:10523000CDB7DEB72C970FB6F894DEBF0FBECDBF4B
:10524000082F80FF84C0EFE7F6E08AE080AB89E1B9
:1052500083AB11AA12AA83E084AB8AE097EDA3E2A4
:10526000BCE385AB96ABA7ABB0AF8FE692E1A3E012
:10527000BBE381AF92AFA3AFB4AF16AE80E090E0D6
:10528000A8ECB1E48093BE069093BF06A093C0063D
:10529000B093C10680E090E0AAEFB3E48093C20629
:1052A0009093C306A093C406B093C5062AEF30E0DE
:1052B0003093C7062093C60640E050E060E87FE3E5
:1052C0004093C8065093C9066093CA067093CB06F4
:1052D00015AE40E050E06AE773E440835183628397
:1052E00073834483558366837783408751876287BE
:1052F000738784879587A687B787808B918BA28BCE
:10530000B38B848B958BA68BB78B80E090EAACE057
:10531000B7E4808F918FA28FB38F848F958FA68FE4
:10532000B78F80A391A3A2A3B3A380E090E0A8E4E9
:10533000B3EC84A395A3A6A3B7A380A791A7A2A724
:10534000B3A784A795A7A6A7B7A70E94062901FF20
:1053500011C0FE0131968CE0DF011D928A95E9F7BC
:1053600010E0BE016F5F7F4F812F0E94FC281F5FFE
:105370001830B9F702FF0AC060E080E093E00E94B5
:105380001B0560E081E593E00E941B0503FF05C05B
:1053900060E08EEA93E00E941B052C960FB6F8940D
:1053A000DEBF0FBECDBFDF91CF911F910F9108954A
:1053B0001F93CF93DF93182FEB0181E5189FB00166
:1053C00011247D5F40E550E0CE010E947F05892BCE
:1053D00039F41882BE01812F0E94EA2880E001C0C2
:1053E00081E0DF91CF911F910895CF93DF93EC017E
:1053F00040E550E06EEA73E00E947F05892B31F4AE
:105400001882CE010E94F42880E001C081E0DF9183
:10541000CF9108951F93CF93DF93182FEB018DE069
:10542000189FB00111247E5F4CE050E0CE010E9435
:105430007F05892B59F48CE0FE0111928A95E9F7DA
:10544000BE01812F0E94FC2880E001C081E0DF9135
:10545000CF911F91089580E090E00E94130589305C
:1054600069F44DE450E061E070E08FE796E00E945F
:105470007F0521E0892B19F420E001C020E0822F74
:105480000895CF92DF92EF92FF92CF93DF93C82FD0
:105490006A017B0120E030E0A901C701B6010E944A
:1054A0009F3988230CF4DDC0C436A0F0ECE9EC0F82
:1054B000E33020F0EA3008F0E2C0D5C0F0E0EE0FB3
:1054C000FF1FEE0FFF1FE158F94FC082D182E28229
:1054D000F382C3C0C701B6010E94E43C0E94223A95
:1054E0008C2F90E08C31910508F0BFC0FC01EA5C84
:1054F000FE4F0C94383D633008F4B9C06093AF069A
:10550000ACC06093B206A9C06093B0060E947D2E25
:10551000A4C06093B1060E947D2E9FC0662331F027
:10552000EFE7F6E085AD846085AF97C0EFE7F6E082
:1055300085AD8B7F85AF91C0662331F0EFE7F6E054
:1055400085AD806485AF89C0EFE7F6E085AD8F7BE0
:1055500085AF83C0662331F0EFE7F6E085AD806864
:1055600085AF7BC0EFE7F6E085AD8F7785AF75C07F
:105570006093B30672C0C092B406D092B506E092B2
:10558000B606F092B70669C0C092B806D092B906C6
:10559000E092BA06F092BB0660C0662331F0EFE7F6
:1055A000F6E085AD816085AF58C0EFE7F6E085ADE8
:1055B0008E7F85AF52C0662341F08091BC0684FF88
:1055C00058C080628093BC0648C0EFE7F6E085AD26
:1055D0008F7D85AF42C0662331F0EFE7F6E085AD01
:1055E000886085AF05C0EFE7F6E085AD877F85AFC2
:1055F0000E94061132C0662331F0EFE7F6E085AD78
:10560000806185AF2AC0EFE7F6E085AD8F7C85AF7E
:1056100024C06093BD0621C0C092BE06D092BF06D2
:10562000E092C006F092C10618C0C092C206D092A5
:10563000C306E092C406F092C5060FC0862F90E024
:105640009093C7068093C60608C0C092C806D09241
:10565000C906E092CA06F092CB060E94062980E0B5
:1056600058C084E056C083E054C083E052C086E056
:1056700050C08AE04EC083E04CC083E04AC0E2E9FB
:10568000EC0FE33070F0EA30B0F388E88C0F833031
:10569000A0F08A3090F38EE78C0F833048F183E0DE
:1056A00038C0F0E0EE0FFF1FEE0FFF1FE557F94F78
:1056B000C082D182E282F382D0CFC82FD0E0CC0F5B
:1056C000DD1FCC0FDD1FC956D94F20E030E040E789
:1056D00052E4C701B6010E94013C20E030E040E7FF
:1056E00052E40E94013C688379838A839B83B5CF0F
:1056F000E82FF0E0EE0FFF1FEE0FFF1FED55F94F03
:10570000F7FAF094F7F8F094C082D182E282F38243
:10571000A4CFDF91CF91FF90EF90DF90CF900895CD
:105720000E942B2A811108C087E00E943F228FEF40
:105730000E9414290E9428230895882321F0813093
:1057400021F080E1089584E0089588E00895882399
:1057500021F0813021F080E8089580E2089580E40E
:105760000895882321F0813021F080E1089582E0BE
:10577000089584E00895E0EBF0E080818F778083E6
:105780000895239A259A0E94BB2B0895CF92DF9209
:10579000EF92FF926A017B01811103C00E94BB2B33
:1057A0004DC0813011F42D9801C02D9A83E880936B
:1057B000B000E1EBF0E08081887F8260808320E0B0
:1057C00030E0A901C701B6010E949F3918161CF0EC
:1057D0000E94BB2B33C020E030E0A901C701B60115
:1057E0000E949F3988239CF020E030E04AE754E48F
:1057F000C701B6010E94C13B181664F40F2EC12CDC
:10580000D12CFAE7EF2EF4E4FF2EF02D03C0C12CCB
:10581000D12C76012CE53FE842E85EE3C701B601F2
:105820000E94013C20E030E040E05FE30E94AA38A3
:105830000E948E3A0E94223A6093B300FF90EF904C
:10584000DF90CF900895CF92DF92EF92FF92CF93A7
:105850009091A105923051F06A017B01C82F0E94FE
:105860002A22B701A6018C2F0E94C62BCF91FF9050
:10587000EF90DF90CF9008958091BC0682FF02C028
:10588000289A01C028988091A1058C7099F0E9E8C8
:10589000F4E08091840487878091850486878091D5
:1058A000AF06880F845081958587EFE6F0E0808110
:1058B000826080830895EFE6F0E080818D7F8083B1
:1058C000E1E8F0E08081887F81608083109283042A
:1058D0008091B2068F3F21F490912705992379F0AA
:1058E0009091A105943059F090E00E942B1980917D
:1058F000BC0682FD02C0289A0895289808958091D8
:10590000BC0682FFFACFF7CF1F920F920FB60F920D
:1059100011240F931F932F933F934F935F936F9394
:105920007F938F939F93AF93BF93CF93DF93EF9327
:10593000FF93809183048111B5C18BB1E9E8F4E054
:105940009785907E8F71892B8BB98BB1837E9685DD
:10595000892B8BB9858586BD82E085BD81E08093EA
:105960008304789481A192A1892B09F092C080913F
:10597000880490918704981709F480C08091880466
:1059800090E0EF01FC01EE0FFF1FDF01A80FB91F30
:10599000AA0FBB1FA455BB4FBAA3A9A3FD018381C6
:1059A000948190938900809388008D919C911197A8
:1059B0009D8F8C8F1296EC9112978E8D8E17E9F039
:1059C000EE8F01E1E09FF0011124E053FB4FF8A3BB
:1059D000EF8F4585568567857089769567955795CC
:1059E0004795488759876A877B874C835D836E8399
:1059F0007F83488359836A837B83E9E8F4E0C78D1A
:105A0000D0A19881809184048927878749815A8110
:105A10006B817C8115960C90159704C076956795DF
:105A2000579547950A94D2F7408B518B628B738BB5
:105A30004D815E816F81788515960C90159704C015
:105A400076956795579547950A94D2F7448B558B71
:105A5000668B778B49855A856B857C858A019B018E
:105A600015960C9004C036952795179507950A94BE
:105A7000D2F7008F118F228F338F0BC00E945B2CC7
:105A80009FB7F894809125058460809325059FBF7A
:105A900009C10E942D20E9E8F4E016864081518179
:105AA0006281738180899189A289B389840F951F4E
:105AB000A61FB71F80839183A283B383078CF0A1B5
:105AC000E02D4585568567857089481759076A070F
:105AD0007B0770F5C9E8D4E024E02E87458556851C
